:100000000C9482000C94AA000C94AA000C94810B0E
:100010000C94810B0C94810B0C94AA000C94AA00F4
:100020000C94AA000C94AA000C94AA000C94AA00A8
:100030000C94AA000C94AA000C94AA000C94AA0098
:100040000C94120D0C94AA000C9470100C94A21035
:100050000C94AA000C94AA000C94AA000C94AA0078
:100060000C94AA000C94AA000000000800020100F1
:100070000003040700000000000000000102040863
:100080001020408001020408102001020408102002
:10009000040404040404040402020202020203032E
:1000A00003030303000000002300260029000000D2
:1000B0000000250028002B0000000000240027007D
:1000C0002A004E414E494E495459494E46CDCCCC5A
:1000D0003D0AD7233C17B7D13877CC2B329595E61C
:1000E000241FB14F0A000020410000C84200401CFC
:1000F0004620BCBE4CCA1B0E5AAEC59D740084037C
:10010000D2109D0311241FBECFEFD8E0DEBFCDBFBC
:1001100011E0A0E0B1E0E8E3F6E302C005900D9243
:10012000AA39B107D9F722E0AAE9B1E001C01D92CE
:10013000A33EB207E1F710E0C2E0D1E004C022978D
:10014000FE010E94E316CE3FD107C9F70E941611A7
:100150000C940F1B0C940000CF92DF92EF92FF9251
:100160000F931F93CF93DF9300D0CDB7DEB76C0111
:100170008B017C0184E0E80EF11CC60169837A835F
:100180000E944419F80181938F01FFEFCF1ADF0A13
:1001900069817A81CE14DF0481F7CB010F900F9033
:1001A000DF91CF911F910F91FF90EF90DF90CF9053
:1001B0000895CF93DF938CE390E00E944419C1E24D
:1001C000D1E088838DE390E00E9444198983CE01B9
:1001D000DF91CF9108958AE691E09093BB018093DF
:1001E000BA018AEB91E00E94640A8CEC91E00E94D3
:1001F000541382ED91E00C94FB0BEF92FF920F935E
:100200001F93CF93DF931F92CDB7DEB77C01FC0124
:1002100000811181C80169830E94441969816817AE
:1002200019F0C8010E944C19C7010F90DF91CF91BE
:100230001F910F91FF90EF900895BF92CF92DF92A0
:10024000EF92FF920F931F93CF93DF9300D01F92F3
:10025000CDB7DEB78C01B62EE62EF72E6C0184E00A
:10026000C80ED11CF70161917F011A830983CE0169
:1002700001967B830E94FD000F5F1F4F7B810C1551
:100280001D0581F78B2D972F0F900F900F90DF9109
:10029000CF911F910F91FF90EF90DF90CF90BF9083
:1002A00008950F931F93CF93DF9300D0CDB7DEB7A0
:1002B00001E211E0F80160818CE390E09A83898388
:1002C000CE0101960E94FD00F80161818DE390E06E
:1002D0009A838983CE0101960E94FD00C8010F9088
:1002E0000F90DF91CF911F910F9108950F931F935E
:1002F000CF93DF938C01EB0197FD0AC060E083E0B0
:100300000E94CA0E61E084E00E94CA0EB8010CC0CF
:1003100061E083E00E94CA0E60E084E00E94CA0EA1
:1003200066277727601B710B86E00E94090ED7FDB8
:100330000AC060E088E00E94CA0E61E087E00E9487
:10034000CA0EBE010CC061E088E00E94CA0E60E0E7
:1003500087E00E94CA0E662777276C1B7D0B85E01D
:10036000DF91CF911F910F910C94090ECF93DF93E2
:10037000EC0180919C0190919D0118161906B4F42E
:1003800080919C0190919D0188359B41B4F54DC0B1
:100390008091AC019091AD018C179D0788F38091FD
:1003A000AE019091AF018C179D0750F361E08CE096
:1003B0000E94CA0E66E470E084EC9FEF0E94760112
:1003C00041E06AEA71E08AEB91E00E944B0780917C
:1003D000AA019091AB018C179D07D0F6D1CF8091E7
:1003E000B6019091B7018C179D07F8F08091B40188
:1003F0009091B5018C179D07C0F061E08CE00E94E0
:10040000CA0E64EC7FEF86E490E00E94760141E042
:100410006AEA71E08AEB91E00E944B078091B80193
:100420009091B9018C179D07D0F660E08CE0DF91C8
:10043000CF910C94CA0E2F923F924F925F926F927F
:100440007F928F929F92AF92BF92CF92DF92EF9264
:10045000FF920F931F93CF93DF9300D000D0CDB7BF
:10046000DEB71B0129013A01E982FA820B831C8362
:100470004501560182E3C82ED12C98ECE92EF12CCF
:1004800000E010E020E041E06AEA71E08AEB91E0F0
:100490000E949A0990939D0180939C018C5A9D40E3
:1004A0009093A9018093A80120919E0130919F0112
:1004B000A901662757FD6095762FC090A201D090C4
:1004C000A301E090A401F090A5014C0D5D1D6E1DEF
:1004D0007F1D4093A2015093A3016093A4017093E8
:1004E000A5018C01021B130B1093A7010093A60119
:1004F000413751416140710564F040E751E161E0ED
:1005000070E04093A2015093A3016093A401709303
:10051000A5014091A2015091A3016091A4017091A5
:10052000A50140395E4E6E4F7F4F64F440E95EEEA8
:100530006EEF7FEF4093A2015093A3016093A4015B
:100540007093A501BC01882777FD8095982F0E94A4
:100550004A15A30192010E94FE152B013C01B8012E
:10056000882777FD8095982F0E944A15A501940150
:100570000E94FE159B01AC01C301B2010E94471409
:100580004B015C016091A2017091A3018091A401D3
:100590009091A5010E944A1529813A814B815C8185
:1005A0000E94FE159B01AC01C501B4010E944714D5
:1005B0000E941715261637062CF07093A101609340
:1005C000A00104C03092A1012092A00188279927A0
:1005D000821993092091A0013091A10128173907B0
:1005E00024F49093A1018093A0018091200188239D
:1005F00039F18091A0019091A10197FF0DC0B10147
:10060000681B790B6F3F710519F014F06FEF70E004
:10061000820D931D0E9476018091A0019091A1010D
:10062000181619066CF4B101681B790B820D931D25
:100630008F3F910519F014F08FEF90E00E94760142
:1006400080912001811118C08091A0019091A10199
:1006500097FF05C0B101820D931D0E947601809124
:10066000A0019091A1011816190634F4B101681B7C
:10067000790BC1010E9476018091A8019091A90196
:1006800090939F0180939E010F900F900F900F9079
:10069000DF91CF911F910F91FF90EF90DF90CF905E
:1006A000BF90AF909F908F907F906F905F904F9092
:1006B0003F902F90089581E00E94000F90931101C8
:1006C0008093100180E00E94000F90930F018093AF
:1006D0000E0108956BE271E080E090E00E94AC00B2
:1006E00067E271E084E190E00E94AC0063E271E0B7
:1006F00088E290E00E94AC000E94D90068E371E0BB
:1007000080E492E00C9480110F9320E04BE06AE0CB
:1007100082ED91E00E94540C6BE471E08CEC91E06E
:100720000E94C21309E024E048E066E071E08AEB31
:1007300091E00E94420A0F9108950C94EB00CF9330
:10074000DF936BE471E08CEC91E00E94D81382EDB2
:1007500091E00E941B0B892B09F463C182ED91E0AB
:100760000E948E0A8093CB01833241F48CEC91E09D
:100770000E942F1470939B0160939A018091CB018A
:10078000803781F5C0E0D0E060E0CE010E944C19D6
:100790002196C431D105C1F78CEC91E00E943A1446
:1007A00060932B0170932C0180932D0190932E0167
:1007B0006BE271E080E090E00E941D0162E471E074
:1007C00080E492E00E94631140912B0150912C0132
:1007D00060912D0170912E0125E030E080E492E0DF
:1007E0000E9442138091CB01803511F56BE271E0DC
:1007F00080E090E00E94AC0040912B0150912C01D0
:1008000060912D0170912E0125E030E080E492E0AE
:100810000E94401340912B0150912C0160912D01B9
:1008200070912E0125E030E082ED91E00E944213AC
:100830008091CB01843681F5C4E1D0E060E0CE0147
:100840000E944C192196C832D105C1F78CEC91E079
:100850000E943A1460932701709328018093290124
:1008600090932A0167E271E084E190E00E941D010B
:100870006CE471E080E492E00E94631140912701F2
:10088000509128016091290170912A0125E030E002
:1008900080E492E00E9442138091CB01843411F5F0
:1008A00067E271E084E190E00E94AC0040912B018E
:1008B00050912C0160912D0170912E0125E030E0C6
:1008C00080E492E00E94401340912701509128015A
:1008D0006091290170912A0125E030E082ED91E0DC
:1008E0000E9442138091CB01893681F5C8E2D0E0A5
:1008F00060E0CE010E944C192196CC33D105C1F79E
:100900008CEC91E00E943A146093230170932401CF
:10091000809325019093260163E271E088E290E0E4
:100920000E941D0166E571E080E492E00E9463117F
:10093000409123015091240160912501709126017D
:1009400025E030E080E492E00E9442138091CB01E8
:10095000893411F563E271E088E290E00E94AC0016
:10096000409123015091240160912501709126014D
:1009700025E030E080E492E00E94401340912301A2
:1009800050912401609125017091260125E030E00D
:1009900082ED91E00E9442138091CB01863701F5F0
:1009A000CCE3D0E060E0CE010E944C192196C03526
:1009B000D105C1F78CEC91E00E943A140E94171502
:1009C00070932201609321010E94510160912101E5
:1009D000709122014AE050E080E492E00E943D12D2
:1009E0008091CB018635B1F40E94D900609121013C
:1009F000709122014AE050E080E492E00E943512BA
:100A000060912101709122014AE050E082ED91E075
:100A10000E943D126091CB018CEC91E00E941C146D
:100A200096CEDF91CF910895CF93DF9326E040E0FB
:100A300052EC61E070E080E492E00E940E1040E031
:100A400052EC61E070E082ED91E00E94840C64EF72
:100A500071E080E090E00E947F0D0E946A0361E0F7
:100A60008DE00E94910E61E08CE00E94910E61E0A9
:100A700082E00E94910E61E089E00E94910E61E0A7
:100A800083E00E94910E61E084E00E94910E61E09B
:100A900086E00E94910E61E088E00E94910E61E084
:100AA00087E00E94910E61E085E00E94910E61E076
:100AB0008DE00E94CA0E61E08CE00E94CA0E61E0E7
:100AC00082E00E94CA0E68EC70E080E090E00E9434
:100AD0007F0D60E08DE00E94CA0E60E08CE00E9415
:100AE000CA0E60E082E00E94CA0E68EC70E080E00E
:100AF00090E00E947F0D61E08CE00E94CA0EC4E687
:100B0000D0E061E08AEB91E00E94B5082197C9F737
:100B100060E08CE00E94CA0E809121019091220138
:100B200090931F0180931E0180912B0190912C01C5
:100B3000A0912D01B0912E0180931A0190931B0179
:100B4000A0931C01B0931D01809127019091280171
:100B5000A0912901B0912A01809316019093170169
:100B6000A0931801B0931901809123019091240161
:100B7000A0912501B0912601809312019093130159
:100B8000A0931401B09315010E949F030E945B0380
:100B900080910E0190910F01892B31F080919A0183
:100BA00090919B01019781F764E170E080E090E013
:100BB0000E947F0D61E08CE00E94CA0E61E082E03D
:100BC0000E94CA0E64E670E080E090E00E947F0D13
:100BD00060E08CE00E94CA0E60E082E00E94CA0ED3
:100BE00064E670E080E090E00E947F0D81E090E09C
:100BF00090939B0180939A01DF91CF91089580910A
:100C00009A0190919B01892B71F40E949F0360E0EF
:100C100070E080E090E00E94760180919A019091CE
:100C20009B01019791F70895AF92BF92CF92DF9207
:100C3000EF92FF920F931F93609121017091220117
:100C400070931F0160931E0120912B0130912C01A4
:100C500040912D0150912E0120931A0130931B01D8
:100C600040931C0150931D01A0902701B0902801D2
:100C7000C0902901D0902A01A0921601B0921701CC
:100C8000C0921801D0921901E0902301F090240144
:100C90000091250110912601E0921201F0921301BA
:100CA000009314011093150181E090E00E941B0253
:100CB00084EF91E00E94B6010E949F031F910F9163
:100CC000FF90EF90DF90CF90BF90AF900C94FF0516
:100CD000CF92DF92EF92FF920F931F93CF93DF9308
:100CE000EC018B018A859B85892B09F446C080E045
:100CF0009C85891748F4F801E80FF11DE80FF11DF4
:100D0000118210828F5FF4CFC12C8889C81610F031
:100D100040E01CC0D12C8C85D816B0F4ED2CF12C01
:100D2000AA85BB85AE0DBF1D8C910E94EC0DF7010D
:100D3000EE0FFF1FE00FF11F20813181280F391FB7
:100D400031832083D394E7CFC394DFCF8C854817BA
:100D5000A0F4F801E40FF11DE40FF11D688970E0C3
:100D6000CB019595879520813181820F931F0E9439
:100D70006516718360834F5FE9CFDF91CF911F913B
:100D80000F91FF90EF90DF90CF900895EF92FF9238
:100D90000F931F93CF93DF931F92CDB7DEB77C01E4
:100DA0008B01DC0113961C921E92129715961C92D1
:100DB0001E92149717961C921E92169719961C92C3
:100DC0001E921897413120F080E11C968C9302C04E
:100DD000FC014487D7011A968D919C911B97892B12
:100DE00011F030E00FC0F701848590E029830E9464
:100DF000F616D7011B969C938E931A972981892BFF
:100E000081F715C0F7018485381780F4832F90E0AF
:100E1000F801E80FF91F4081D7011A96ED91FC9176
:100E20001B97E80FF91F40833F5FECCF25870F909A
:100E3000DF91CF911F910F91FF90EF900895CF9385
:100E4000DF93EC018D858F3F69F061E00E94910E88
:100E500060E08D850E94CA0E88EC90E0DF91CF9112
:100E60000C94A70DDF91CF910895CF93DF93EC0100
:100E70008D858F3F69F061E00E94910E61E08D8564
:100E80000E94CA0E88EC90E0DF91CF910C94A70DE0
:100E9000DF91CF910895DF92EF92FF920F931F930E
:100EA000CF93DF93CDB7DEB7A0970FB6F894DEBF30
:100EB0000FBECDBF8C017B01D42E8FEF840F82300B
:100EC00020F4C8010E94350703C0C8010E941F0713
:100ED000D801ED91FC910190F081E02DB701C8019E
:100EE0000995C8010E941F07B2E0DB122FC0D8018C
:100EF000ED91FC910190F081E02DBE016F5F7F4F7D
:100F0000C801099540E0F80184854817F8F4842F5A
:100F100090E0880F991FF701E80FF91F21E030E0FA
:100F20002C0F3D1F820F931FD8011E962D913C91CF
:100F30001F97DC018D919C91281B390B8081918139
:100F4000820F931F918380834F5FDDCFA0960FB6F2
:100F5000F894DEBF0FBECDBFDF91CF911F910F91EF
:100F6000FF90EF90DF9008952F923F925F926F92E3
:100F70007F928F929F92AF92BF92CF92DF92EF9229
:100F8000FF920F931F93CF93DF93CDB7DEB7C05679
:100F9000D1090FB6F894DEBF0FBECDBF8C014B0157
:100FA0005A01522EDA018D919C91892B31F0F40176
:100FB00080819181892BF1F424C0D8011C968C91F9
:100FC00090E0880F991F0E94F616F50191838083A7
:100FD000009709F4B1C0FC0120E030E0D8011C9674
:100FE0008C9190E02817390714F7119211922F5F16
:100FF0003F4FF4CFE12CF12C6E01B1E2CB0ED11CAE
:1010000021C0F801848590E0880F991F0E94F61690
:10101000D4018D939C93009709F48EC0FC0120E0CD
:1010200030E0D8011C968C9190E02817390714F70E
:10103000D8011E968D919C911F97819391932F5F5C
:101040003F4FEFCF452DBE016F5B7F4FC8010E9420
:101050004B07F8016484712CFE01EF5BFF4FC60162
:101060009E012F5F3F4F190120E030E02615370524
:101070004CF5E114F10489F0DC016D917C91408123
:1010800051816417750748F0D1016D917C914081C1
:1010900051814617570748F00DC040815181DC014E
:1010A0004D935C93E114F10479F740815181D101B2
:1010B0004D935C932F5F3F4FB2E02B0E311C329665
:1010C0000296D4CFEFEFEE1AFE0AFAE0EF16F10423
:1010D00009F0B8CF9E012F5F3F4F7901360180E0C4
:1010E00090E0F801248530E0821793072CF5D701B2
:1010F0002D913D917D01B3016C197D09D501ED91D3
:10110000FC91E60FF71F408151814217530710F4FD
:1011100031832083F301219131913F01D401ED917D
:10112000FC91E60FF71F408151812417350710F419
:10113000318320830196D5CFC05ADF4F0FB6F89484
:10114000DEBF0FBECDBFDF91CF911F910F91FF90FA
:10115000EF90DF90CF90BF90AF909F908F907F9057
:101160006F905F903F902F9008951F93CF93DF93E0
:10117000EC01162F8FEF860F823018F0662369F08E
:1011800019C021E0AE014C5F5F4FBE016E5F7F4F23
:10119000CE010E94B407123069F4AE01485F5F4F80
:1011A000BE016A5F7F4F20E0CE01DF91CF911F919A
:1011B0000C94B407DF91CF911F9108959F92AF9245
:1011C000BF92CF92DF92EF92FF920F931F93CF9334
:1011D000DF93EC018B01942E5901842F8D7F51F404
:1011E0008E819F81892B09F499C088859985892BE7
:1011F00009F494C08FEF890D823050F48A819B816D
:10120000892B09F48BC08C819D81892B09F486C0C0
:10121000492DB801CE010E944B07780100E010E093
:10122000C12CD12C8C8590E0C816D9060CF076C064
:1012300081E098120AC0EC81FD81E00FF11F01905E
:10124000F081E02DAA81BB810DC08E819F81288510
:10125000398591100CC0F901E00FF11F0190F08168
:10126000E02DDC01A00FB11F8D919C9128C0FC01E5
:10127000E00FF11F40815181EA81FB81E00FF11FF6
:1012800080819181EE85FF854817590710F4CF01C1
:1012900004C08E0F9F1F841B950BD901A00FB11F97
:1012A0002D913C91AC81BD81A00FB11F4D915C91FE
:1012B0002417350720F0E40FF51FE21BF30BE81BA2
:1012C000F90BA9F0D7012D913C9140E050E0281B8B
:1012D000390B41095109A8EEB3E00E94CE169F01D7
:1012E00040E050E00E94AF1637FD0AC002C020E087
:1012F00030E0293EB3E03B072CF028EE33E002C09B
:1013000020E030E02A0D3B1DF701219331937F014E
:10131000FFEFCF1ADF0A0E5F1F4F84CFDF91CF910F
:101320001F910F91FF90EF90DF90CF90BF90AF9003
:101330009F9008952F923F924F925F926F927F926B
:101340008F929F92AF92BF92CF92DF92EF92FF92D5
:101350000F931F93CF93DF9300D000D000D0CDB771
:10136000DEB74C015B012C8398010E94DE08D4019A
:101370001C96BC91BB83A982BA82412C512C3201AC
:101380001E821D82812C912C5401212C312C08EEBF
:1013900013E0EB813E1661F1A981BA81ED91FD91D7
:1013A000BA83A983BC81BB2321F0C8018E1B9F0B8C
:1013B000FC01EE16FF0614F422242394CE16DF0659
:1013C0007CF4DF01A30192010E94D916860E971EBC
:1013D000A81EB91EAD81BE81AE0FBF1FBE83AD83F7
:1013E0003394B8EE4B0EB3E05B1E611C711CD1CF81
:1013F00021101EC0432D50E04150510924EF31E02F
:10140000429FC001439F900D529F900D1124209147
:10141000F1013091F20128173907C4F088EE93E00A
:10142000489F9001499F300D589F300D112410C0E6
:10143000ED81FE819F0140E050E0C501B4010E94B2
:101440008D163093F2012093F10102C020E030E0CC
:10145000C90126960FB6F894DEBF0FBECDBFDF914F
:10146000CF911F910F91FF90EF90DF90CF90BF90A1
:10147000AF909F908F907F906F905F904F903F9034
:101480002F9008950F931F93CF93DF93EC01122FAA
:10149000202F8AE691E0998388831B821A821D821D
:1014A0001C821F821E82198618861B861A86CE0110
:1014B0000E94C606188B8FEF93E09F878E87DF917F
:1014C000CF911F910F910895CF93DF93EC0184E6A4
:1014D00091E0998388838A859B85009711F00E940B
:1014E0008E178C819D81009711F00E948E17888540
:1014F0009985009711F00E948E178A819B81009731
:1015000011F00E948E178E819F81009721F0DF914C
:10151000CF910C948E17DF91CF91089520913502D1
:101520003091360228173907B9F49091F301809170
:10153000F401981789F0E091F301F0E0EB50FE4FD1
:1015400080812091F30130E02F5F3F4F2F733327CD
:101550002093F30190E008958FEF9FEF08951F937C
:10156000CF93DF93DC015C968D919C915D97009702
:1015700049F481E090E013969C938E93129780E05B
:1015800090E03BC05196ED91FC91529750962C9172
:101590005097322F30951FB75E964C915E9741FB66
:1015A000772770F941FD6095F8944081772311F019
:1015B000422B01C043234083EC012197F1F748E01F
:1015C000508160FF02C0522B01C053235083EC01B5
:1015D0002197F1F76695415099F78081772311F0B3
:1015E000832301C0822B80831FBF5C968D919C91C9
:1015F0005D970197F1F781E090E0DF91CF911F9126
:10160000089520913502309136022817390781F468
:101610009091F3018091F401981751F0E091F3015A
:10162000F0E0EB50FE4F8081992787FD909508955B
:101630008FEF9FEF089520913502309136022817E1
:10164000390771F48091F4012091F30190E0805CFE
:101650009F4F821B910960E470E00E947916089503
:1016600080E090E0089520913502309136022817ED
:10167000390739F48FB7F8941092F4011092F301FE
:101680008FBF0895E0913502F0913602E817F9070F
:1016900069F4A389B4899C918589809589238C9369
:1016A000109236021092350281E0089580E008958C
:1016B000CF93DF93EC018A8D9B8D892BF1F0809184
:1016C0003502909136028C179D07B9F0009711F002
:1016D0000E94420B8E8D8E7F8E8F1092F40110929D
:1016E000F301D0933602C0933502EB89FC898081E7
:1016F0009D89892B808381E001C080E0DF91CF91BB
:1017000008951F920F920FB60F9211242F933F93BB
:101710004F935F936F937F938F939F93AF93BF93F9
:10172000EF93FF93E0913502F0913602309709F480
:1017300051C0868DA685B785958581FF04C08C91A3
:10174000892329F447C08C91892309F043C0A389D8
:10175000B4899C918589809589238C938689978902
:101760000197F1F7208D318DA685B785758558E0F5
:1017700040E0C9010197F1F7842F90E09595879596
:10178000482F6C91672309F04068515091F7868D7E
:1017900081FD40958091F40190E001968F73992727
:1017A0002091F301281749F0A091F401B0E0AB506B
:1017B000BE4F4C938093F40103C0868D8160868F69
:1017C000828D938D0197F1F7A389B4898C919589C6
:1017D000892B8C93FF91EF91BF91AF919F918F9146
:1017E0007F916F915F914F913F912F910F900FBE1D
:1017F0000F901F90189520E731E0FC013183208382
:101800000C94420B1F93CF93DF93EC01162F6E8D38
:101810006695617081E06827812F0E94CA0E61E0A1
:10182000812F0E94910E812F90E0FC01E458FF4F20
:10183000E491E88BFC01E057FF4FE491F0E0EE0FFC
:10184000FF1FE255FF4F859194919A8B898BDF9111
:10185000CF911F9108951F93CF93DF93EC01162F23
:1018600060E0812F0E94910E8E8D81FD04C061E0A9
:10187000812F0E94CA0E1C87812F90E0FC01E45842
:10188000FF4FE491ED87FC01E057FF4FE491F0E05A
:10189000EE0FFF1FEC55FF4F859194919F878E8728
:1018A000DF91CF911F910895FF920F931F93CF93D4
:1018B000DF93EC01F62E522F1B821A8208EE13E002
:1018C00020E030E00C831D832E833F8380E791E08E
:1018D000998388831F8A1E8A198E188E1B8E1A8EF2
:1018E0001D8E1C8E8E8D8E7F50FB81F98E8F642F06
:1018F000CE010E94020C6F2DCE01DF91CF911F917E
:101900000F91FF900C942B0CCF93DF93EC019A0175
:10191000AB011B8E1A8E198E188E1F8A1E8A60E0EC
:1019200079E08DE390E00E94AF16C90124303105C3
:1019300020F0B9016350710902C061E070E07D8F51
:101940006C8FEC85E63108F068C0B9017695679533
:101950006431710518F06351710902C061E070E0F3
:101960007F8B6E8B069718F0C901059702C081E046
:1019700090E0998F888FC901880F991F820F931F5C
:1019800096958795969587958D30910510F00C97D3
:1019900002C081E090E09B8F8A8F20916800E83040
:1019A00050F091E0EE3008F490E081E001C0880F43
:1019B0009A95EAF701C084E0822B809368002C8519
:1019C000283038F02E3040F0263148F48CE690E094
:1019D00008C08DE690E005C08BE690E002C080E094
:1019E00090E09C8B8B8B283030F481E001C0880F15
:1019F0002A95EAF70DC0822F90E02E3010F4089758
:101A000001C00E9791E001C0990F8A95EAF7892FDE
:101A10008D8B8C8D9D8D0197F1F7CE01DF91CF914C
:101A20000C94580B1F920F920FB60F9211242F9304
:101A30003F938F939F93AF93BF9380913802909180
:101A40003902A0913A02B0913B023091370223E073
:101A5000230F2D3720F40196A11DB11D05C026E8E6
:101A6000230F0296A11DB11D2093370280933802E7
:101A700090933902A0933A02B0933B0280913C02CA
:101A800090913D02A0913E02B0913F020196A11DAE
:101A9000B11D80933C0290933D02A0933E02B0930F
:101AA0003F02BF91AF919F918F913F912F910F90E6
:101AB0000FBE0F901F9018953FB7F89480913C028D
:101AC00090913D02A0913E02B0913F0226B5A89BA5
:101AD00005C02F3F19F00196A11DB11D3FBF66271C
:101AE000782F892F9A2F620F711D811D911D42E061
:101AF000660F771F881F991F4A95D1F70895CF92D7
:101B0000DF92EF92FF92CF93DF936B017C010E94F3
:101B10005C0DEB01C114D104E104F10489F00E94D1
:101B200045140E945C0D6C1B7D0B683E734090F366
:101B300081E0C81AD108E108F108C851DC4FEACFAA
:101B4000DF91CF91FF90EF90DF90CF9008950197B4
:101B500039F0880F991F880F991F02970197F1F7A5
:101B60000895789484B5826084BD84B5816084BD15
:101B700085B5826085BD85B5816085BDEEE6F0E006
:101B8000808181608083E1E8F0E010828081826062
:101B90008083808181608083E0E8F0E080818160E3
:101BA0008083E1EBF0E0808184608083E0EBF0E013
:101BB000808181608083EAE7F0E0808184608083B7
:101BC0008081826080838081816080838081806861
:101BD00080831092C10008958E3008F08E50877077
:101BE00020912F0190E4299F90011124822B809352
:101BF0007C0080917A00806480937A0080917A00E2
:101C000086FDFCCF809178002091790090E0922BA6
:101C100008951F93CF93DF93182FEB0161E00E948B
:101C2000910E209711F460E004C0CF3FD10539F444
:101C300061E0812FDF91CF911F910C94CA0EE12FAB
:101C4000F0E0E859FF4FE491E330F9F048F4E13077
:101C5000B9F0E230A1F584B5806284BDC8BD34C05E
:101C6000E730E9F0E83019F1E43049F5809180007F
:101C7000806280938000D0938B00C0938A0024C040
:101C800084B5806884BDC7BD1FC080918000806816
:101C900080938000D0938900C093880015C0809104
:101CA000B00080688093B000C093B3000DC08091F5
:101CB000B00080628093B000C093B40005C0C0380B
:101CC000D1050CF0B5CFAFCFDF91CF911F91089523
:101CD000833081F028F4813099F08230A1F00895AA
:101CE0008730A9F08830B9F08430D1F48091800039
:101CF0008F7D03C0809180008F778093800008954E
:101D000084B58F7702C084B58F7D84BD089580919E
:101D1000B0008F7703C08091B0008F7D8093B000BA
:101D20000895CF93DF9390E0FC01E458FF4F249196
:101D3000FC01E057FF4F8491882349F190E0880F20
:101D4000991FFC01E854FF4FA591B49182559F4F14
:101D5000FC01C591D4919FB7611108C0F8948C9192
:101D6000209582238C93888182230AC0623051F4AB
:101D7000F8948C91322F309583238C938881822B19
:101D8000888304C0F8948C91822B8C939FBFDF9141
:101D9000CF9108950F931F93CF93DF931F92CDB7E9
:101DA000DEB7282F30E0F901E859FF4F8491F9019F
:101DB000E458FF4F1491F901E057FF4F04910023BD
:101DC000C9F0882321F069830E94680E6981E02FA1
:101DD000F0E0EE0FFF1FE255FF4FA591B4919FB7C2
:101DE000F8948C91611103C01095812301C0812B5F
:101DF0008C939FBF0F90DF91CF911F910F9108950A
:101E0000CF93DF93282F30E0F901E859FF4F8491F9
:101E1000F901E458FF4FD491F901E057FF4FC49105
:101E2000CC2391F081110E94680EEC2FF0E0EE0FB0
:101E3000FF1FEC55FF4FA591B4912C912D2381E00C
:101E400090E021F480E002C080E090E0DF91CF914B
:101E500008950E94E718FC01818D228D90E0805C3E
:101E60009F4F821B91098F7399270895FC01918DD3
:101E7000828D981731F0828DE80FF11D858D90E0ED
:101E800008958FEF9FEF0895FC01918D828D981733
:101E900061F0828DDF01A80FB11D5D968C91928D4E
:101EA0009F5F9F73928F90E008958FEF9FEF08954B
:101EB00088EC90E1892B49F080E090E0892B29F0B3
:101EC0000E94C81081110C9400000895FC01848DBB
:101ED000DF01A80FB11DA35ABF4F2C91848D90E054
:101EE00001968F739927848FA689B7892C93A0892F
:101EF000B1898C9180648C93938D848D981306C0E6
:101F00000288F389E02D80818F7D80830895CF93AF
:101F1000DF93EC01888D8823C9F0EA89FB898081F1
:101F200085FD05C0A889B9898C9186FD0FC00FB6C3
:101F300007FCF5CF808185FFF2CFA889B9898C9104
:101F400085FFEDCFCE010E94660FE7CFDF91CF91E5
:101F50000895CF92DF92FF920F931F93CF93DF9359
:101F60001F92CDB7DEB76C01DC015B969C915B974D
:101F70005C968C915C97981307C05096ED91FC91FC
:101F80005197808185FD32C0F601038D10E00F5F0F
:101F90001F4F0F731127F02EF601848DF81211C018
:101FA0000FB607FCF9CFD6015096ED91FC915197F1
:101FB000808185FFF1CFC60169830E94660F698128
:101FC000EBCF838DE80FF11DE35AFF4F6083D601FD
:101FD0005B960C935B975296ED91FC9153978081A1
:101FE0008062808381E058968C930DC0D60156960E
:101FF000ED91FC91579760835096ED91FC9151972C
:1020000080818064808381E090E00F90DF91CF91A8
:102010001F910F91FF90DF90CF900895BF92CF92C4
:10202000DF92EF92FF92CF93DF93EC016A017B0185
:10203000B22EE889F98982E08083411581EE580744
:1020400061057105A1F060E079E08DE390E0A70102
:1020500096010E948D16215031094109510956956A
:10206000479537952795211580E1380798F0E8893D
:10207000F989108260E874E88EE190E0A70196018A
:102080000E948D16215031094109510956954795F5
:1020900037952795EC85FD853083EE85FF85208378
:1020A000188EEC89FD89B082EA89FB898081806184
:1020B0008083EA89FB89808188608083EA89FB8943
:1020C000808180688083EA89FB8980818F7D80831D
:1020D000DF91CF91FF90EF90DF90CF90BF90089568
:1020E0001F920F920FB60F9211242F938F939F93ED
:1020F000EF93FF93E0915002F09151028081E091C3
:102100005602F091570282FD12C0908180915902CF
:102110008F5F8F7320915A02821751F0E09159021C
:10212000F0E0E05CFD4F958F8093590201C0808103
:10213000FF91EF919F918F912F910F900FBE0F9074
:102140001F9018951F920F920FB60F9211242F9384
:102150003F934F935F936F937F938F939F93AF932F
:10216000BF93EF93FF9380E492E00E94660FFF918C
:10217000EF91BF91AF919F918F917F916F915F91FF
:102180004F913F912F910F900FBE0F901F90189578
:1021900080E492E00E942B0F21E0892B09F420E0DB
:1021A000822F0895109243021092420288EE93E02B
:1021B000A0E0B0E08093440290934502A0934602D1
:1021C000B093470280E891E09093410280934002EF
:1021D00085EC90E090934D0280934C0284EC90E06B
:1021E00090934F0280934E0280EC90E090935102C6
:1021F0008093500281EC90E09093530280935202BE
:1022000082EC90E0909355028093540286EC90E02B
:1022100090935702809356021092590210925A02DC
:1022200010925B0210925C02089508950E94B10D15
:102230000E9415110E941405C8E5DFE00E941406F3
:102240002097E1F30E94580FF9CFCF92DF92EF92DF
:10225000FF920F931F93CF93DF936C017A01EB01F1
:10226000E60EF71E00E010E0CE15DF0561F0699183
:10227000D601ED91FC910190F081E02DC601099508
:10228000080F191FF1CFC801DF91CF911F910F9156
:10229000FF90EF90DF90CF9008956115710581F068
:1022A000DB010D900020E9F7AD0141505109461BBB
:1022B000570BDC01ED91FC910280F381E02D099434
:1022C00080E090E008950C944D11DC01ED91FC91BB
:1022D0000190F081E02D09940F931F93CF93DF932A
:1022E000EC016DE00E9465118C016AE0CE010E9454
:1022F0006511800F911FDF91CF911F910F9108956C
:102300000F931F93CF93DF93EC010E944D118C012B
:10231000CE010E946C11800F911FDF91CF911F9110
:102320000F9108958F929F92AF92BF92CF92DF92BA
:10233000EF92FF920F931F93CF93DF93CDB7DEB74A
:10234000A1970FB6F894DEBF0FBECDBF7C01C42E9F
:10235000E52FCB01D22E19A221E02D1510F02AE095
:10236000D22E8E010F5D1F4F8D2C912CA12CB12CE4
:102370006C2D7E2FA50194010E948D168C2DD29E6E
:1023800080191124015011098A3014F4805D01C0B4
:10239000895CF8018083211531054105510521F043
:1023A000C22EE32FCA01E4CFB801C7010E944D112C
:1023B000A1960FB6F894DEBF0FBECDBFDF91CF91CF
:1023C0001F910F91FF90EF90DF90CF90BF90AF9053
:1023D0009F908F900895CF92DF92EF92FF920F938C
:1023E0001F93CF93DF93EC016A017B012115310527
:1023F00079F4E881F9810190F081E02D642FDF917B
:10240000CF911F910F91FF90EF90DF90CF900994A3
:102410002A303105E9F477FF1AC06DE20E94651198
:102420008C0144275527BA014C195D096E097F09B3
:102430002AE0CE010E949211800F911FDF91CF916F
:102440001F910F91FF90EF90DF90CF9008952AE0B9
:10245000B701A601CE01DF91CF911F910F91FF909F
:10246000EF90DF90CF900C9492119A01AB01662708
:1024700057FD6095762F0C94EB110F931F93CF931C
:10248000DF93EC019A01AB01662757FD6095762F2B
:102490000E94EB118C01CE010E946C11800F911FE4
:1024A000DF91CF911F910F9108954F925F926F929C
:1024B0007F928F929F92AF92BF92CF92DF92EF92D4
:1024C000FF920F931F93CF93DF93EC016A017B017F
:1024D000B22E9A01AB01C701B6010E946116882392
:1024E00019F06CE871E027C026013701E89477F80D
:1024F0002FEF3FEF4FE75FE7C301B2010E94611684
:1025000081110DC02FEF3FEF4FE75FE7C301B2012D
:102510000E94AB1418161CF460E971E00CC02FEF98
:102520003FEF4FE75FE4C701B6010E94FA151816A6
:10253000ACF464E971E0CE01DF91CF911F910F916E
:10254000FF90EF90DF90CF90BF90AF909F908F90D3
:102550007F906F905F904F900C944D112FEF3FEF55
:102560004FE75FECC701B6010E94AB1487FDE1CFD6
:1025700020E030E0A901C701B6010E94AB1487FF3B
:102580000AC06DE2CE010E9465118C01F7FAF09449
:10259000F7F8F09402C000E010E0A12C60E070E0D9
:1025A00080E09FE3AB1441F020E030E040E251E4F2
:1025B0000E94AF14A394F6CF9B01AC01C701B601F2
:1025C0000E9447146B017C010E941C152B013C01E9
:1025D0000E9448159B01AC01C701B6010E94461438
:1025E0006B017C012AE0B301A201CE010E9492118D
:1025F000080F191FBB2039F068E971E0CE010E9475
:102600004D11080F191F7B2C772041F120E030E09D
:1026100040E251E4C701B6010E94FE156B017C0146
:102620000E9417154B01AA2497FCA094BA2C2AE00B
:1026300030E0B501A401CE010E94EB11080F191F73
:10264000C501B4010E944A159B01AC01C701B60146
:102650000E9446146B017C017A94D6CFC801DF91A9
:10266000CF911F910F91FF90EF90DF90CF90BF908F
:10267000AF909F908F907F906F905F904F90089554
:102680000C9455120F931F93CF93DF93EC010E948C
:1026900055128C01CE010E946C11800F911FDF91A9
:1026A000CF911F910F910895FC01808191810C942D
:1026B0008E17CF93DF93EC0188819981009711F0F9
:1026C0000E948E17198218821D821C821B821A8218
:1026D000DF91CF9108950F931F93CF93DF93EC0178
:1026E0008B016F5F7F4F888199810E941D18009731
:1026F00031F0998388831B830A8381E001C080E0E5
:10270000DF91CF911F910F910895CF93DF93EC014B
:1027100088819981892B29F08A819B818617970767
:1027200060F4CE010E946B13882341F08C819D815F
:10273000892B19F4E881F981108281E0DF91CF9132
:102740000895EF92FF920F931F93CF93DF93EC01C5
:102750007B018A01BA010E948513811104C0CE0158
:102760000E94591307C01D830C83B701888199818A
:102770000E942819CE01DF91CF911F910F91FF90F8
:10278000EF900895FC01118210821382128215824B
:1027900014826115710559F0FB0101900020E9F7E1
:1027A000AF0141505109461B570B0C94A1130895DA
:1027B000CF93DF93EC016115710561F0FB0101908E
:1027C0000020E9F7AF0141505109461B570B0E9409
:1027D000A11302C00E945913CE01DF91CF91089539
:1027E000EF92FF920F931F93CF93DF93EC017B0146
:1027F0000C811D816115710511F480E016C0411531
:10280000510591F0040F151FB8010E94851388230C
:10281000A1F3288139818C819D81B701820F931F9B
:102820000E9428191D830C8381E0DF91CF911F91B5
:102830000F91FF90EF900895CF93DF9300D0CDB725
:10284000DEB769831A8241E050E0BE016F5F7F4FBF
:102850000E94F0130F900F90DF91CF910895FC012B
:1028600080819181009711F00C94F01860E070E085
:10287000CB010895FC0180819181009711F00C94A7
:10288000EC1860E070E0CB01089508955058BB2724
:10289000AA270ED075C166D130F06BD120F031F48B
:1028A0009F3F11F41EF45BC10EF4E095E7FB51C1AC
:1028B000E92F77D180F3BA1762077307840795076A
:1028C00018F071F49EF58FC10EF4E0950B2EBA2F1F
:1028D000A02D0B01B90190010C01CA01A001112426
:1028E000FF27591B99F0593F50F4503E68F11A16D2
:1028F000F040A22F232F342F4427585FF3CF469563
:1029000037952795A795F0405395C9F77EF41F1684
:10291000BA0B620B730B840BBAF09150A1F0FF0F4E
:10292000BB1F661F771F881FC2F70EC0BA0F621F3A
:10293000731F841F48F4879577956795B795F7952A
:102940009E3F08F0B3CF9395880F08F09927EE0FBC
:10295000979587950895D9D008F481E008950CD013
:102960000FC107D140F0FED030F021F45F3F19F0E5
:10297000F0C0511139C1F3C014D198F39923C9F3B0
:102980005523B1F3951B550BBB27AA276217730775
:10299000840738F09F5F5F4F220F331F441FAA1F29
:1029A000A9F333D00E2E3AF0E0E830D091505040E9
:1029B000E695001CCAF729D0FE2F27D0660F771F97
:1029C000881FBB1F261737074807AB07B0E809F079
:1029D000BB0B802DBF01FF2793585F4F2AF09E3F0E
:1029E000510568F0B6C000C15F3FECF3983EDCF3E0
:1029F000869577956795B795F7959F5FC9F7880F87
:102A0000911D9695879597F90895E1E0660F771FD8
:102A1000881FBB1F621773078407BA0720F0621B69
:102A2000730B840BBA0BEE1F88F7E095089504D062
:102A30006894B111D9C00895BCD088F09F5790F028
:102A4000B92F9927B751A0F0D1F0660F771F881FD3
:102A5000991F1AF0BA95C9F712C0B13081F0C3D0EE
:102A6000B1E00895C0C0672F782F8827B85F39F08C
:102A7000B93FCCF3869577956795B395D9F73EF432
:102A800090958095709561957F4F8F4F9F4F0895DA
:102A9000E89409C097FB3EF49095809570956195F8
:102AA0007F4F8F4F9F4F9923A9F0F92F96E9BB27AE
:102AB0009395F695879577956795B795F111F8CF2A
:102AC000FAF4BB0F11F460FF1BC06F5F7F4F8F4F95
:102AD0009F4F16C0882311F096E911C0772321F08B
:102AE0009EE8872F762F05C0662371F096E8862F23
:102AF00070E060E02AF09A95660F771F881FDAF77A
:102B0000880F9695879597F90895990F0008550FA6
:102B1000AA0BE0E8FEEF16161706E807F907C0F063
:102B200012161306E407F50798F0621B730B840B6B
:102B3000950B39F40A2661F0232B242B252B21F445
:102B400008950A2609F4A140A6958FEF811D811DE5
:102B5000089597F99F6780E870E060E008959FEF1F
:102B600080EC089500240A94161617061806090624
:102B7000089500240A9412161306140605060895F3
:102B8000092E0394000C11F4882352F0BB0F40F47B
:102B9000BF2B11F460FF04C06F5F7F4F8F4F9F4FBB
:102BA000089557FD9058440F551F59F05F3F71F03D
:102BB0004795880F97FB991F61F09F3F79F08795A4
:102BC0000895121613061406551FF2CF4695F1DF2D
:102BD00008C0161617061806991FF1CF86957105BD
:102BE000610508940895E894BB2766277727CB01F1
:102BF00097F908958ADF08F48FEF08950BD0C0CFBE
:102C0000B1DF28F0B6DF18F0952309F0A2CFA7CFE7
:102C10001124EACFC6DFA0F3959FD1F3950F50E0C2
:102C2000551F629FF001729FBB27F00DB11D639F7E
:102C3000AA27F00DB11DAA1F649F6627B00DA11D24
:102C4000661F829F2227B00DA11D621F739FB00DCA
:102C5000A11D621F839FA00D611D221F749F33273A
:102C6000A00D611D231F849F600D211D822F762FD3
:102C70006A2F11249F5750408AF0E1F088234AF0D0
:102C8000EE0FFF1FBB1F661F771F881F915050401C
:102C9000A9F79E3F510570F05CCFA6CF5F3FECF3E4
:102CA000983EDCF3869577956795B795F795E79508
:102CB0009F5FC1F7FE2B880F911D9695879597F919
:102CC000089523DF880B990B0895AA1BBB1B51E1C4
:102CD00007C0AA1FBB1FA617B70710F0A61BB70B8C
:102CE000881F991F5A95A9F780959095BC01CD0131
:102CF000089597FB072E16F4009407D077FD09D0AE
:102D00000E94651607FC05D03EF4909581959F4F73
:102D10000895709561957F4F0895A1E21A2EAA1B20
:102D2000BB1BFD010DC0AA1FBB1FEE1FFF1FA2177B
:102D3000B307E407F50720F0A21BB30BE40BF50B78
:102D4000661F771F881F991F1A9469F76095709501
:102D5000809590959B01AC01BD01CF010895052E92
:102D600097FB1EF400940E94C61657FD07D00E94E0
:102D70008D1607FC03D04EF40C94C6165095409562
:102D8000309521953F4F4F4F5F4F08959095809517
:102D9000709561957F4F8F4F9F4F08950E94E71662
:102DA000A59F900DB49F900DA49F800D911D11249F
:102DB0000895B7FF0C94CE160E94CE16821B930B7B
:102DC0000895EE0FFF1F0590F491E02D0994A29F46
:102DD000B001B39FC001A39F700D811D1124911DEF
:102DE000B29F700D811D1124911D0895CF93DF9323
:102DF0008230910510F482E090E0E091DF02F091E2
:102E0000E00220E030E0A0E0B0E0309739F140810E
:102E1000518148175907B8F04817590771F4828152
:102E20009381109729F013969C938E9312972CC040
:102E30009093E0028093DF0227C02115310531F025
:102E40004217530718F0A901DB0101C0EF019A01F5
:102E5000BD01DF010280F381E02DD7CF21153105BF
:102E6000F9F0281B390B2430310580F48A819B81CD
:102E70006115710521F0FB019383828304C0909357
:102E8000E0028093DF02FE01329644C0FE01E20FB1
:102E9000F31F8193919322503109398328833AC0DB
:102EA0002091DD023091DE02232B41F420910201BA
:102EB000309103013093DE022093DD022091000166
:102EC000309101012115310541F42DB73EB74091F4
:102ED000040150910501241B350BE091DD02F091B6
:102EE000DE02E217F307A0F42E1B3F0B2817390769
:102EF00078F0AC014E5F5F4F2417350748F04E0F56
:102F00005F1F5093DE024093DD028193919302C0D4
:102F1000E0E0F0E0CF01DF91CF910895CF93DF9310
:102F2000009709F487C0FC01329713821282C09186
:102F3000DF02D091E002209781F420813181280FB7
:102F4000391F8091DD029091DE028217930779F597
:102F5000F093DE02E093DD026DC0DE0120E030E0A0
:102F6000AE17BF0750F412964D915C9113979D01D7
:102F70004115510509F1DA01F3CFB383A2834081F2
:102F80005181840F951F8A179B0771F48D919C9135
:102F90001197840F951F02969183808312968D91CD
:102FA0009C911397938382832115310529F4F09323
:102FB000E002E093DF023EC0D9011396FC93EE934A
:102FC00012974D915D91A40FB51FEA17FB0779F495
:102FD00080819181840F951F0296D90111969C934F
:102FE0008E938281938113969C938E931297E0E047
:102FF000F0E08A819B81009719F0FE01EC01F9CF86
:10300000CE01029628813981820F931F2091DD0223
:103010003091DE022817390769F4309729F41092AD
:10302000E0021092DF0202C013821282D093DE020D
:10303000C093DD02DF91CF910895A0E0B0E0E3E21C
:10304000F8E10C94DC1AEC01CB01209719F40E94F2
:10305000F616B8C0FE01E60FF71F9E012250310997
:10306000E217F30708F4ACC0D9010D911C91119738
:1030700006171707B8F00530110508F49FC0A8011E
:10308000445051094617570708F498C002501109D7
:10309000061B170B019311936D937C93CF010E9434
:1030A0008E178CC05B01A01AB10A4E01800E911ED2
:1030B000A091DF02B091E002612C712C60E070E021
:1030C000109709F449C0A815B905C9F5ED90FC9011
:1030D0001197670142E0C40ED11CCA14DB0478F1D9
:1030E00047018A189B08640142E0C40ED11C129665
:1030F000BC9012971396AC91B5E0CB16D10440F07A
:10310000B282A38391828082D9018D939C9309C05E
:103110000E5F1F4F0E0D1F1DF90111830083EB2D54
:10312000FA2F6115710531F0DB011396FC93EE93D4
:10313000129744C0F093E002E093DF023FC06D912C
:103140007C9111976616770608F43B01BD01129633
:103150000D90BC91A02DB4CF6091DD027091DE0284
:1031600068157905E9F468167906D0F440910001F4
:10317000509101014115510541F44DB75EB7609181
:10318000040170910501461B570BE417F507C0F4C5
:10319000F093DE02E093DD02F901918380830EC09B
:1031A0000E94F6167C01009759F0A801BE010E940A
:1031B0001F19CE010E948E17C70104C0CE0102C0A4
:1031C00080E090E0CDB7DEB7EEE00C94F81A81E035
:1031D00090E0F8940C940F1B662777270C945A19EB
:1031E0001F93FC0199278827BC01E89411911032A4
:1031F000E9F3193010F01E30C8F31B3251F01D32C4
:1032000049F4689406C00E942F19610F711D811D39
:10321000911D119110531A30B0F33EF490958095A2
:10322000709561957F4F8F4F9F4F1F91089591111A
:10323000A4C1803219F089508550D0F70895FB0160
:10324000DC0102C001900D9241505040D8F7089522
:10325000FB01DC0101900D920020E1F70895592F48
:10326000482F372F262F660F771F881F991F660F4D
:10327000771F881F991F620F731F841F951F660F8A
:10328000771F881F991F0895F999FECF92BD81BDC0
:10329000F89A992780B50895262FF999FECF1FBA7D
:1032A00092BD81BD20BD0FB6F894FA9AF99A0FBE6F
:1032B00001960895A0E0B0E0E0E6F9E10C94DE1A92
:1032C0008B016115710521F0DB018C9311969C93A4
:1032D000EC015E01BFEFAB1ABB0A7501C8808C2DF3
:1032E00090E00E941719892B11F0E501F2CFEDE271
:1032F000CE1208C07E01F2E0EF0EF11CC980DD2481
:10330000D39409C02BE2C21205C07E0142E0E40E54
:10331000F11CC980D12CE701219743E050E06AEC11
:1033200070E0CE010E94C01A892BC1F4239645E0BB
:1033300050E065EC70E0CE010E94C01A892B09F4C0
:1033400025960115110519F0D801CD93DC93D11004
:1033500006C160E070E080E89FE70AC143E050E00A
:1033600062EC70E0CE010E94C01A892B59F401155D
:10337000110509F4F9C0B2E0EB0EF11CF801F1827D
:10338000E082F2C0F70160E070E0CB01C0E0D0E085
:103390007F01A0EDAA2EAC0C29E02A1530F14D2DAD
:1033A0004260B42E2D2D2870D2FE04C0211125C0FC
:1033B000219623C021112197A5E0B0E09B01AC012B
:1033C0000E94CE16660F771F881F991F6A0D711D08
:1033D000811D911D6839A9E97A078A07A9E19A0731
:1033E00060F0BD2DB660BB2E08C02EEFA2120AC041
:1033F000D3FC50C04D2D4860B42E3196D701CC90EF
:10340000DB2CC6CF2C2D2F7D253409F043C0A081A5
:10341000AD3241F4BD2DB061DB2E7F0122E0E20E22
:10342000F11C0CC07F01AB3231F04FEFE41AF40A0B
:1034300021E030E006C0A2E0EA0EF11CA18122E00A
:1034400030E0A053AA3018F0E21AF30A23C0F701C3
:1034500020E030E02038BCE03B075CF4A901440FD9
:10346000551F440F551F240F351F220F331F2A0FDE
:10347000311DAF014F5F5F4F7A01A081A053AA3089
:1034800010F4FA01E7CFD4FE03C03195219531093C
:10349000C20FD31FD1FE09C00115110531F0E1E0C3
:1034A000EE1AF108D801ED92FC920E9448152D2DDC
:1034B0002370233019F04B015C0106C04B015C0105
:1034C000B7FAB094B7F8B09420E030E0A901C50194
:1034D000B4010E94AB14882309F43EC0D7FF06C094
:1034E000D195C195D10901EE10E002C009EF10E0BD
:1034F0006801B8E1CB1AD10890E2E92EF12CCE1583
:10350000DF0574F0F8012591359145915491C5017D
:10351000B4010E94FE154B015C01CE19DF09EFCF0B
:1035200004501109F594E7940C151D0541F78A2DF7
:10353000880F8B2D881F8F3F49F020E030E0A901D4
:10354000C501B4010E94AB14811106C082E290E073
:103550009093E2028093E102C501B40109C060E0EA
:1035600070E080E89FEF04C060E070E080EC9FE7CF
:10357000CDB7DEB7ECE00C94FA1A992788270895A6
:10358000FB01DC014150504088F08D9181341CF0EA
:103590008B350CF4805E659161341CF06B350CF456
:1035A000605E861B611171F3990B0895881BFCCF37
:1035B0002F923F924F925F926F927F928F929F9243
:1035C000AF92BF92CF92DF92EF92FF920F931F9331
:1035D000CF93DF93CDB7DEB7CA1BDB0B0FB6F894E2
:1035E000DEBF0FBECDBF09942A88398848885F8422
:1035F0006E847D848C849B84AA84B984C884DF8093
:10360000EE80FD800C811B81AA81B981CE0FD11D76
:103610000FB6F894DEBF0FBECDBFED01089511E0E7
:10362000C2E0D1E004C0FE010E94E3162296C4303D
:08363000D107C9F7F894FFCFA0
:103638000000E302800007060504030201000700FA
:10364800070017B7D1380000003F0AD7A33C500045
:10365800017800A01A2F3EF6282041C7CBC74201A7
:103668006573637269742100726563757065722190
:1036780021006461746F206B703A20006461746F7C
:10368800206B643B20006461746F20206B6920000C
:1036980000000000290F000000006806000000007C
:1036A800AF0A25111B0B8E0A010B330B000000001B
:1036B800A90F25112B0F440F360F870F6E616E006F
:0A36C800696E66006F7666002E0042
:00000001FF
